{
  "contractName": "ZombieHelper",
  "abi": [
    {
      "anonymous": false,
      "inputs": [
        {
          "indexed": true,
          "internalType": "uint256",
          "name": "zombieId",
          "type": "uint256"
        },
        {
          "indexed": false,
          "internalType": "string",
          "name": "name",
          "type": "string"
        },
        {
          "indexed": false,
          "internalType": "uint256",
          "name": "dna",
          "type": "uint256"
        }
      ],
      "name": "NewZombie",
      "type": "event"
    },
    {
      "anonymous": false,
      "inputs": [
        {
          "indexed": true,
          "internalType": "address",
          "name": "previousOwner",
          "type": "address"
        },
        {
          "indexed": true,
          "internalType": "address",
          "name": "newOwner",
          "type": "address"
        }
      ],
      "name": "OwnershipTransferred",
      "type": "event"
    },
    {
      "inputs": [],
      "name": "cooldownTime",
      "outputs": [
        {
          "internalType": "uint256",
          "name": "",
          "type": "uint256"
        }
      ],
      "stateMutability": "view",
      "type": "function"
    },
    {
      "inputs": [
        {
          "internalType": "string",
          "name": "_name",
          "type": "string"
        }
      ],
      "name": "createRandomZombie",
      "outputs": [],
      "stateMutability": "nonpayable",
      "type": "function"
    },
    {
      "inputs": [],
      "name": "dnaDigits",
      "outputs": [
        {
          "internalType": "uint256",
          "name": "",
          "type": "uint256"
        }
      ],
      "stateMutability": "view",
      "type": "function"
    },
    {
      "inputs": [],
      "name": "dnaModulus",
      "outputs": [
        {
          "internalType": "uint256",
          "name": "",
          "type": "uint256"
        }
      ],
      "stateMutability": "view",
      "type": "function"
    },
    {
      "inputs": [
        {
          "internalType": "uint256",
          "name": "_zombieId",
          "type": "uint256"
        },
        {
          "internalType": "uint256",
          "name": "_kittyId",
          "type": "uint256"
        }
      ],
      "name": "feedOnKitty",
      "outputs": [],
      "stateMutability": "nonpayable",
      "type": "function"
    },
    {
      "inputs": [],
      "name": "kittyContract",
      "outputs": [
        {
          "internalType": "contract KittyInterface",
          "name": "",
          "type": "address"
        }
      ],
      "stateMutability": "view",
      "type": "function"
    },
    {
      "inputs": [],
      "name": "owner",
      "outputs": [
        {
          "internalType": "address",
          "name": "",
          "type": "address"
        }
      ],
      "stateMutability": "view",
      "type": "function"
    },
    {
      "inputs": [
        {
          "internalType": "address",
          "name": "",
          "type": "address"
        }
      ],
      "name": "ownerZombieCount",
      "outputs": [
        {
          "internalType": "uint256",
          "name": "",
          "type": "uint256"
        }
      ],
      "stateMutability": "view",
      "type": "function"
    },
    {
      "inputs": [
        {
          "internalType": "address",
          "name": "_address",
          "type": "address"
        }
      ],
      "name": "setKittyContractAddress",
      "outputs": [],
      "stateMutability": "nonpayable",
      "type": "function"
    },
    {
      "inputs": [
        {
          "internalType": "address",
          "name": "newOwner",
          "type": "address"
        }
      ],
      "name": "transferOwnership",
      "outputs": [],
      "stateMutability": "nonpayable",
      "type": "function"
    },
    {
      "inputs": [
        {
          "internalType": "uint256",
          "name": "",
          "type": "uint256"
        }
      ],
      "name": "zombieToOwner",
      "outputs": [
        {
          "internalType": "address",
          "name": "",
          "type": "address"
        }
      ],
      "stateMutability": "view",
      "type": "function"
    },
    {
      "inputs": [
        {
          "internalType": "uint256",
          "name": "",
          "type": "uint256"
        }
      ],
      "name": "zombies",
      "outputs": [
        {
          "internalType": "string",
          "name": "name",
          "type": "string"
        },
        {
          "internalType": "uint256",
          "name": "dna",
          "type": "uint256"
        },
        {
          "internalType": "uint32",
          "name": "level",
          "type": "uint32"
        },
        {
          "internalType": "uint32",
          "name": "readyTime",
          "type": "uint32"
        }
      ],
      "stateMutability": "view",
      "type": "function"
    },
    {
      "inputs": [
        {
          "internalType": "uint256",
          "name": "_zombieId",
          "type": "uint256"
        },
        {
          "internalType": "string",
          "name": "_newName",
          "type": "string"
        }
      ],
      "name": "changeName",
      "outputs": [],
      "stateMutability": "nonpayable",
      "type": "function"
    },
    {
      "inputs": [
        {
          "internalType": "uint256",
          "name": "_zombieId",
          "type": "uint256"
        },
        {
          "internalType": "uint256",
          "name": "_newDna",
          "type": "uint256"
        }
      ],
      "name": "changeDna",
      "outputs": [],
      "stateMutability": "nonpayable",
      "type": "function"
    },
    {
      "inputs": [
        {
          "internalType": "address",
          "name": "_owner",
          "type": "address"
        }
      ],
      "name": "getZombiesByOwner",
      "outputs": [
        {
          "internalType": "uint256[]",
          "name": "",
          "type": "uint256[]"
        }
      ],
      "stateMutability": "view",
      "type": "function"
    }
  ],
  "bytecode": "0x60806040526010600155600154600a6200001a919062000275565b6002556201518060035534801562000030575f80fd5b50335f806101000a81548173ffffffffffffffffffffffffffffffffffffffff021916908373ffffffffffffffffffffffffffffffffffffffff1602179055505f8054906101000a900473ffffffffffffffffffffffffffffffffffffffff1673ffffffffffffffffffffffffffffffffffffffff165f73ffffffffffffffffffffffffffffffffffffffff167f8be0079c531659141344cd1fd0a4f28419497f9722a3daafe3b4186f6b6457e060405160405180910390a3620002c5565b7f4e487b71000000000000000000000000000000000000000000000000000000005f52601160045260245ffd5b5f8160011c9050919050565b5f808291508390505b60018511156200017957808604811115620001515762000150620000ef565b5b6001851615620001615780820291505b808102905062000171856200011c565b945062000131565b94509492505050565b5f8262000193576001905062000265565b81620001a2575f905062000265565b8160018114620001bb5760028114620001c657620001fc565b600191505062000265565b60ff841115620001db57620001da620000ef565b5b8360020a915084821115620001f557620001f4620000ef565b5b5062000265565b5060208310610133831016604e8410600b8410161715620002365782820a90508381111562000230576200022f620000ef565b5b62000265565b62000245848484600162000128565b925090508184048111156200025f576200025e620000ef565b5b81810290505b9392505050565b5f819050919050565b5f62000281826200026c565b91506200028e836200026c565b9250620002bd7fffffffffffffffffffffffffffffffffffffffffffffffffffffffffffffffff848462000182565b905092915050565b61204080620002d35f395ff3fe608060405234801561000f575f80fd5b50600436106100f3575f3560e01c80635faf288011610095578063b319c6b711610064578063b319c6b714610284578063c39cbef1146102a2578063daba0711146102be578063f2fde38b146102dc576100f3565b80635faf288014610210578063692c66271461022c5780637bff0a011461024a5780638da5cb5b14610266576100f3565b80634412e104116100d15780634412e10414610176578063528b7b8f146101a65780635f4623f1146101d65780635f9da25c146101f2576100f3565b806301afd7e1146100f757806317a7f4cc146101275780632052465e14610143575b5f80fd5b610111600480360381019061010c9190611199565b6102f8565b60405161011e91906111dc565b60405180910390f35b610141600480360381019061013c919061121f565b61030d565b005b61015d6004803603810190610158919061125d565b6103f8565b60405161016d9493929190611330565b60405180910390f35b610190600480360381019061018b9190611199565b6104d8565b60405161019d9190611431565b60405180910390f35b6101c060048036038101906101bb919061125d565b610628565b6040516101cd9190611460565b60405180910390f35b6101f060048036038101906101eb9190611199565b610658565b005b6101fa610728565b60405161020791906114d4565b60405180910390f35b61022a6004803603810190610225919061121f565b61074d565b005b610234610897565b60405161024191906111dc565b60405180910390f35b610264600480360381019061025f9190611619565b61089d565b005b61026e610950565b60405161027b9190611460565b60405180910390f35b61028c610973565b60405161029991906111dc565b60405180910390f35b6102bc60048036038101906102b79190611660565b610979565b005b6102c6610acb565b6040516102d391906111dc565b60405180910390f35b6102f660048036038101906102f19190611199565b610ad1565b005b6006602052805f5260405f205f915090505481565b5f60075f9054906101000a900473ffffffffffffffffffffffffffffffffffffffff1673ffffffffffffffffffffffffffffffffffffffff1663e98b7f4d836040518263ffffffff1660e01b815260040161036891906111dc565b61014060405180830381865afa158015610384573d5f803e3d5ffd5b505050506040513d601f19601f820116820180604052508101906103a89190611703565b99505050505050505050506103f383826040518060400160405280600581526020017f6b69747479000000000000000000000000000000000000000000000000000000815250610c87565b505050565b60048181548110610407575f80fd5b905f5260205f2090600302015f91509050805f01805461042690611809565b80601f016020809104026020016040519081016040528092919081815260200182805461045290611809565b801561049d5780601f106104745761010080835404028352916020019161049d565b820191905f5260205f20905b81548152906001019060200180831161048057829003601f168201915b505050505090806001015490806002015f9054906101000a900463ffffffff16908060020160049054906101000a900463ffffffff16905084565b60605f60065f8473ffffffffffffffffffffffffffffffffffffffff1673ffffffffffffffffffffffffffffffffffffffff1681526020019081526020015f205490505f8167ffffffffffffffff811115610536576105356114f5565b5b6040519080825280602002602001820160405280156105645781602001602082028036833780820191505090505b5090505f805b60048054905081101561061c578573ffffffffffffffffffffffffffffffffffffffff1660055f8381526020019081526020015f205f9054906101000a900473ffffffffffffffffffffffffffffffffffffffff1673ffffffffffffffffffffffffffffffffffffffff160361060957808383815181106105ee576105ed611839565b5b602002602001018181525050818061060590611893565b9250505b808061061490611893565b91505061056a565b50819350505050919050565b6005602052805f5260405f205f915054906101000a900473ffffffffffffffffffffffffffffffffffffffff1681565b5f8054906101000a900473ffffffffffffffffffffffffffffffffffffffff1673ffffffffffffffffffffffffffffffffffffffff163373ffffffffffffffffffffffffffffffffffffffff16146106e5576040517f08c379a00000000000000000000000000000000000000000000000000000000081526004016106dc90611924565b60405180910390fd5b8060075f6101000a81548173ffffffffffffffffffffffffffffffffffffffff021916908373ffffffffffffffffffffffffffffffffffffffff16021790555050565b60075f9054906101000a900473ffffffffffffffffffffffffffffffffffffffff1681565b601482816004828154811061076557610764611839565b5b905f5260205f2090600302016002015f9054906101000a900463ffffffff1663ffffffff1610156107cb576040517f08c379a00000000000000000000000000000000000000000000000000000000081526004016107c29061198c565b60405180910390fd5b60055f8581526020019081526020015f205f9054906101000a900473ffffffffffffffffffffffffffffffffffffffff1673ffffffffffffffffffffffffffffffffffffffff163373ffffffffffffffffffffffffffffffffffffffff1614610869576040517f08c379a0000000000000000000000000000000000000000000000000000000008152600401610860906119f4565b60405180910390fd5b826004858154811061087e5761087d611839565b5b905f5260205f2090600302016001018190555050505050565b60015481565b5f60065f3373ffffffffffffffffffffffffffffffffffffffff1673ffffffffffffffffffffffffffffffffffffffff1681526020019081526020015f20541461091c576040517f08c379a000000000000000000000000000000000000000000000000000000000815260040161091390611a5c565b60405180910390fd5b5f61092682610e86565b90506064816109359190611aa7565b816109409190611ad7565b905061094c8282610ec9565b5050565b5f8054906101000a900473ffffffffffffffffffffffffffffffffffffffff1681565b60035481565b600282816004828154811061099157610990611839565b5b905f5260205f2090600302016002015f9054906101000a900463ffffffff1663ffffffff1610156109f7576040517f08c379a00000000000000000000000000000000000000000000000000000000081526004016109ee9061198c565b60405180910390fd5b60055f8581526020019081526020015f205f9054906101000a900473ffffffffffffffffffffffffffffffffffffffff1673ffffffffffffffffffffffffffffffffffffffff163373ffffffffffffffffffffffffffffffffffffffff1614610a95576040517f08c379a0000000000000000000000000000000000000000000000000000000008152600401610a8c906119f4565b60405180910390fd5b8260048581548110610aaa57610aa9611839565b5b905f5260205f2090600302015f019081610ac49190611c9e565b5050505050565b60025481565b5f8054906101000a900473ffffffffffffffffffffffffffffffffffffffff1673ffffffffffffffffffffffffffffffffffffffff163373ffffffffffffffffffffffffffffffffffffffff1614610b5e576040517f08c379a0000000000000000000000000000000000000000000000000000000008152600401610b5590611924565b60405180910390fd5b5f73ffffffffffffffffffffffffffffffffffffffff168173ffffffffffffffffffffffffffffffffffffffff1603610bcc576040517f08c379a0000000000000000000000000000000000000000000000000000000008152600401610bc390611db7565b60405180910390fd5b8073ffffffffffffffffffffffffffffffffffffffff165f8054906101000a900473ffffffffffffffffffffffffffffffffffffffff1673ffffffffffffffffffffffffffffffffffffffff167f8be0079c531659141344cd1fd0a4f28419497f9722a3daafe3b4186f6b6457e060405160405180910390a3805f806101000a81548173ffffffffffffffffffffffffffffffffffffffff021916908373ffffffffffffffffffffffffffffffffffffffff16021790555050565b60055f8481526020019081526020015f205f9054906101000a900473ffffffffffffffffffffffffffffffffffffffff1673ffffffffffffffffffffffffffffffffffffffff163373ffffffffffffffffffffffffffffffffffffffff1614610d25576040517f08c379a0000000000000000000000000000000000000000000000000000000008152600401610d1c906119f4565b60405180910390fd5b5f60048481548110610d3a57610d39611839565b5b905f5260205f2090600302019050610d51816110d5565b610d90576040517f08c379a0000000000000000000000000000000000000000000000000000000008152600401610d8790611e1f565b60405180910390fd5b60025483610d9e9190611aa7565b92505f6002848360010154610db39190611e3d565b610dbd9190611e70565b9050604051602001610dce90611ef4565b6040516020818303038152906040528051906020012083604051602001610df59190611f38565b6040516020818303038152906040528051906020012003610e37576063606482610e1f9190611aa7565b82610e2a9190611ad7565b610e349190611e3d565b90505b610e766040518060400160405280600681526020017f4e6f4e616d65000000000000000000000000000000000000000000000000000081525082610ec9565b610e7f826110fb565b5050505050565b5f8082604051602001610e999190611f38565b604051602081830303815290604052805190602001205f1c905060025481610ec19190611aa7565b915050919050565b5f60035442610ed89190611e3d565b905063ffffffff8016811115610f23576040517f08c379a0000000000000000000000000000000000000000000000000000000008152600401610f1a90611fbe565b60405180910390fd5b5f8190505f600480549050905060046040518060800160405280878152602001868152602001600163ffffffff1681526020018463ffffffff16815250908060018154018082558091505060019003905f5260205f2090600302015f909190919091505f820151815f019081610f999190611c9e565b50602082015181600101556040820151816002015f6101000a81548163ffffffff021916908363ffffffff16021790555060608201518160020160046101000a81548163ffffffff021916908363ffffffff16021790555050503360055f8381526020019081526020015f205f6101000a81548173ffffffffffffffffffffffffffffffffffffffff021916908373ffffffffffffffffffffffffffffffffffffffff16021790555060065f3373ffffffffffffffffffffffffffffffffffffffff1673ffffffffffffffffffffffffffffffffffffffff1681526020019081526020015f205f81548092919061108f90611893565b9190505550807f88f026aacbbecc90c18411df4b1185fd8d9be2470f1962f192bf84a27d0704b786866040516110c6929190611fdc565b60405180910390a25050505050565b5f428260020160049054906101000a900463ffffffff1663ffffffff1611159050919050565b600354426111099190611e3d565b8160020160046101000a81548163ffffffff021916908363ffffffff16021790555050565b5f604051905090565b5f80fd5b5f80fd5b5f73ffffffffffffffffffffffffffffffffffffffff82169050919050565b5f6111688261113f565b9050919050565b6111788161115e565b8114611182575f80fd5b50565b5f813590506111938161116f565b92915050565b5f602082840312156111ae576111ad611137565b5b5f6111bb84828501611185565b91505092915050565b5f819050919050565b6111d6816111c4565b82525050565b5f6020820190506111ef5f8301846111cd565b92915050565b6111fe816111c4565b8114611208575f80fd5b50565b5f81359050611219816111f5565b92915050565b5f806040838503121561123557611234611137565b5b5f6112428582860161120b565b92505060206112538582860161120b565b9150509250929050565b5f6020828403121561127257611271611137565b5b5f61127f8482850161120b565b91505092915050565b5f81519050919050565b5f82825260208201905092915050565b5f5b838110156112bf5780820151818401526020810190506112a4565b5f8484015250505050565b5f601f19601f8301169050919050565b5f6112e482611288565b6112ee8185611292565b93506112fe8185602086016112a2565b611307816112ca565b840191505092915050565b5f63ffffffff82169050919050565b61132a81611312565b82525050565b5f6080820190508181035f83015261134881876112da565b905061135760208301866111cd565b6113646040830185611321565b6113716060830184611321565b95945050505050565b5f81519050919050565b5f82825260208201905092915050565b5f819050602082019050919050565b6113ac816111c4565b82525050565b5f6113bd83836113a3565b60208301905092915050565b5f602082019050919050565b5f6113df8261137a565b6113e98185611384565b93506113f483611394565b805f5b8381101561142457815161140b88826113b2565b9750611416836113c9565b9250506001810190506113f7565b5085935050505092915050565b5f6020820190508181035f83015261144981846113d5565b905092915050565b61145a8161115e565b82525050565b5f6020820190506114735f830184611451565b92915050565b5f819050919050565b5f61149c6114976114928461113f565b611479565b61113f565b9050919050565b5f6114ad82611482565b9050919050565b5f6114be826114a3565b9050919050565b6114ce816114b4565b82525050565b5f6020820190506114e75f8301846114c5565b92915050565b5f80fd5b5f80fd5b7f4e487b71000000000000000000000000000000000000000000000000000000005f52604160045260245ffd5b61152b826112ca565b810181811067ffffffffffffffff8211171561154a576115496114f5565b5b80604052505050565b5f61155c61112e565b90506115688282611522565b919050565b5f67ffffffffffffffff821115611587576115866114f5565b5b611590826112ca565b9050602081019050919050565b828183375f83830152505050565b5f6115bd6115b88461156d565b611553565b9050828152602081018484840111156115d9576115d86114f1565b5b6115e484828561159d565b509392505050565b5f82601f830112611600576115ff6114ed565b5b81356116108482602086016115ab565b91505092915050565b5f6020828403121561162e5761162d611137565b5b5f82013567ffffffffffffffff81111561164b5761164a61113b565b5b611657848285016115ec565b91505092915050565b5f806040838503121561167657611675611137565b5b5f6116838582860161120b565b925050602083013567ffffffffffffffff8111156116a4576116a361113b565b5b6116b0858286016115ec565b9150509250929050565b5f8115159050919050565b6116ce816116ba565b81146116d8575f80fd5b50565b5f815190506116e9816116c5565b92915050565b5f815190506116fd816111f5565b92915050565b5f805f805f805f805f806101408b8d03121561172257611721611137565b5b5f61172f8d828e016116db565b9a505060206117408d828e016116db565b99505060406117518d828e016116ef565b98505060606117628d828e016116ef565b97505060806117738d828e016116ef565b96505060a06117848d828e016116ef565b95505060c06117958d828e016116ef565b94505060e06117a68d828e016116ef565b9350506101006117b88d828e016116ef565b9250506101206117ca8d828e016116ef565b9150509295989b9194979a5092959850565b7f4e487b71000000000000000000000000000000000000000000000000000000005f52602260045260245ffd5b5f600282049050600182168061182057607f821691505b602082108103611833576118326117dc565b5b50919050565b7f4e487b71000000000000000000000000000000000000000000000000000000005f52603260045260245ffd5b7f4e487b71000000000000000000000000000000000000000000000000000000005f52601160045260245ffd5b5f61189d826111c4565b91507fffffffffffffffffffffffffffffffffffffffffffffffffffffffffffffffff82036118cf576118ce611866565b5b600182019050919050565b7f43616c6c6572206973206e6f7420746865206f776e65720000000000000000005f82015250565b5f61190e601783611292565b9150611919826118da565b602082019050919050565b5f6020820190508181035f83015261193b81611902565b9050919050565b7f5a6f6d626965206c6576656c20746f6f206c6f770000000000000000000000005f82015250565b5f611976601483611292565b915061198182611942565b602082019050919050565b5f6020820190508181035f8301526119a38161196a565b9050919050565b7f4e6f7420746865206f776e6572206f6620746865207a6f6d62696500000000005f82015250565b5f6119de601b83611292565b91506119e9826119aa565b602082019050919050565b5f6020820190508181035f830152611a0b816119d2565b9050919050565b7f596f7520616c7265616479206f776e2061207a6f6d6269652e000000000000005f82015250565b5f611a46601983611292565b9150611a5182611a12565b602082019050919050565b5f6020820190508181035f830152611a7381611a3a565b9050919050565b7f4e487b71000000000000000000000000000000000000000000000000000000005f52601260045260245ffd5b5f611ab1826111c4565b9150611abc836111c4565b925082611acc57611acb611a7a565b5b828206905092915050565b5f611ae1826111c4565b9150611aec836111c4565b9250828203905081811115611b0457611b03611866565b5b92915050565b5f819050815f5260205f209050919050565b5f6020601f8301049050919050565b5f82821b905092915050565b5f60088302611b667fffffffffffffffffffffffffffffffffffffffffffffffffffffffffffffffff82611b2b565b611b708683611b2b565b95508019841693508086168417925050509392505050565b5f611ba2611b9d611b98846111c4565b611479565b6111c4565b9050919050565b5f819050919050565b611bbb83611b88565b611bcf611bc782611ba9565b848454611b37565b825550505050565b5f90565b611be3611bd7565b611bee818484611bb2565b505050565b5b81811015611c1157611c065f82611bdb565b600181019050611bf4565b5050565b601f821115611c5657611c2781611b0a565b611c3084611b1c565b81016020851015611c3f578190505b611c53611c4b85611b1c565b830182611bf3565b50505b505050565b5f82821c905092915050565b5f611c765f1984600802611c5b565b1980831691505092915050565b5f611c8e8383611c67565b9150826002028217905092915050565b611ca782611288565b67ffffffffffffffff811115611cc057611cbf6114f5565b5b611cca8254611809565b611cd5828285611c15565b5f60209050601f831160018114611d06575f8415611cf4578287015190505b611cfe8582611c83565b865550611d65565b601f198416611d1486611b0a565b5f5b82811015611d3b57848901518255600182019150602085019450602081019050611d16565b86831015611d585784890151611d54601f891682611c67565b8355505b6001600288020188555050505b505050505050565b7f4e6577206f776e657220697320746865207a65726f20616464726573730000005f82015250565b5f611da1601d83611292565b9150611dac82611d6d565b602082019050919050565b5f6020820190508181035f830152611dce81611d95565b9050919050565b7f5a6f6d626965206973206e6f74207265616479000000000000000000000000005f82015250565b5f611e09601383611292565b9150611e1482611dd5565b602082019050919050565b5f6020820190508181035f830152611e3681611dfd565b9050919050565b5f611e47826111c4565b9150611e52836111c4565b9250828201905080821115611e6a57611e69611866565b5b92915050565b5f611e7a826111c4565b9150611e85836111c4565b925082611e9557611e94611a7a565b5b828204905092915050565b5f81905092915050565b7f6b697474790000000000000000000000000000000000000000000000000000005f82015250565b5f611ede600583611ea0565b9150611ee982611eaa565b600582019050919050565b5f611efe82611ed2565b9150819050919050565b5f611f1282611288565b611f1c8185611ea0565b9350611f2c8185602086016112a2565b80840191505092915050565b5f611f438284611f08565b915081905092915050565b7f436f6f6c646f776e2074696d6520657863656564732075696e7433322072616e5f8201527f6765000000000000000000000000000000000000000000000000000000000000602082015250565b5f611fa8602283611292565b9150611fb382611f4e565b604082019050919050565b5f6020820190508181035f830152611fd581611f9c565b9050919050565b5f6040820190508181035f830152611ff481856112da565b905061200360208301846111cd565b939250505056fea264697066735822122026d8f74c8e7dfae8a328817010d6675f2effe2d58f7c4996bc326934ccc046bf64736f6c63430008150033",
  "immutableReferences": {},
  "source": "// SPDX-License-Identifier: GPL-MIT\r\npragma solidity ^0.8.19;\r\n\r\nimport \"./zombiefeeding.sol\";\r\n\r\ncontract ZombieHelper is ZombieFeeding {\r\n\r\n  modifier aboveLevel(uint _level, uint _zombieId) {\r\n    require(zombies[_zombieId].level >= _level, \"Zombie level too low\");\r\n    _;\r\n  }\r\n\r\n  function changeName(uint _zombieId, string memory _newName) external aboveLevel(2, _zombieId) {\r\n    require(msg.sender == zombieToOwner[_zombieId], \"Not the owner of the zombie\");\r\n    zombies[_zombieId].name = _newName;\r\n  }\r\n\r\n  function changeDna(uint _zombieId, uint _newDna) external aboveLevel(20, _zombieId) {\r\n    require(msg.sender == zombieToOwner[_zombieId], \"Not the owner of the zombie\");\r\n    zombies[_zombieId].dna = _newDna;\r\n  }\r\n\r\n  function getZombiesByOwner(address _owner) external view returns(uint[] memory) {\r\n    uint count = ownerZombieCount[_owner];\r\n    uint[] memory result = new uint[](count);\r\n    uint counter = 0;\r\n    for (uint i = 0; i < zombies.length; i++) {\r\n      if (zombieToOwner[i] == _owner) {\r\n        result[counter] = i;\r\n        counter++;\r\n      }\r\n    }\r\n    return result;\r\n  }\r\n\r\n}",
  "sourcePath": "C:\\Users\\JTH\\Desktop\\project\\practice-zombieSOL\\contracts\\zombiehelper.sol",
  "compiler": {
    "name": "solc",
    "version": "0.8.21+commit.d9974bed.Emscripten.clang"
  },
  "schemaVersion": "3.4.16",
  "updatedAt": "2024-09-02T12:49:21.249Z",
  "devdoc": {
    "kind": "dev",
    "methods": {},
    "version": 1
  },
  "userdoc": {
    "kind": "user",
    "methods": {},
    "version": 1
  }
}