{
  "contractName": "ZombieFeeding",
  "abi": [
    {
      "anonymous": false,
      "inputs": [
        {
          "indexed": true,
          "internalType": "uint256",
          "name": "zombieId",
          "type": "uint256"
        },
        {
          "indexed": false,
          "internalType": "string",
          "name": "name",
          "type": "string"
        },
        {
          "indexed": false,
          "internalType": "uint256",
          "name": "dna",
          "type": "uint256"
        }
      ],
      "name": "NewZombie",
      "type": "event"
    },
    {
      "anonymous": false,
      "inputs": [
        {
          "indexed": true,
          "internalType": "address",
          "name": "previousOwner",
          "type": "address"
        },
        {
          "indexed": true,
          "internalType": "address",
          "name": "newOwner",
          "type": "address"
        }
      ],
      "name": "OwnershipTransferred",
      "type": "event"
    },
    {
      "inputs": [],
      "name": "cooldownTime",
      "outputs": [
        {
          "internalType": "uint256",
          "name": "",
          "type": "uint256"
        }
      ],
      "stateMutability": "view",
      "type": "function"
    },
    {
      "inputs": [
        {
          "internalType": "string",
          "name": "_name",
          "type": "string"
        }
      ],
      "name": "createRandomZombie",
      "outputs": [],
      "stateMutability": "nonpayable",
      "type": "function"
    },
    {
      "inputs": [],
      "name": "dnaDigits",
      "outputs": [
        {
          "internalType": "uint256",
          "name": "",
          "type": "uint256"
        }
      ],
      "stateMutability": "view",
      "type": "function"
    },
    {
      "inputs": [],
      "name": "dnaModulus",
      "outputs": [
        {
          "internalType": "uint256",
          "name": "",
          "type": "uint256"
        }
      ],
      "stateMutability": "view",
      "type": "function"
    },
    {
      "inputs": [],
      "name": "kittyContract",
      "outputs": [
        {
          "internalType": "contract KittyInterface",
          "name": "",
          "type": "address"
        }
      ],
      "stateMutability": "view",
      "type": "function"
    },
    {
      "inputs": [],
      "name": "owner",
      "outputs": [
        {
          "internalType": "address",
          "name": "",
          "type": "address"
        }
      ],
      "stateMutability": "view",
      "type": "function"
    },
    {
      "inputs": [
        {
          "internalType": "address",
          "name": "",
          "type": "address"
        }
      ],
      "name": "ownerZombieCount",
      "outputs": [
        {
          "internalType": "uint256",
          "name": "",
          "type": "uint256"
        }
      ],
      "stateMutability": "view",
      "type": "function"
    },
    {
      "inputs": [
        {
          "internalType": "address",
          "name": "newOwner",
          "type": "address"
        }
      ],
      "name": "transferOwnership",
      "outputs": [],
      "stateMutability": "nonpayable",
      "type": "function"
    },
    {
      "inputs": [
        {
          "internalType": "uint256",
          "name": "",
          "type": "uint256"
        }
      ],
      "name": "zombieToOwner",
      "outputs": [
        {
          "internalType": "address",
          "name": "",
          "type": "address"
        }
      ],
      "stateMutability": "view",
      "type": "function"
    },
    {
      "inputs": [
        {
          "internalType": "uint256",
          "name": "",
          "type": "uint256"
        }
      ],
      "name": "zombies",
      "outputs": [
        {
          "internalType": "string",
          "name": "name",
          "type": "string"
        },
        {
          "internalType": "uint256",
          "name": "dna",
          "type": "uint256"
        },
        {
          "internalType": "uint32",
          "name": "level",
          "type": "uint32"
        },
        {
          "internalType": "uint32",
          "name": "readyTime",
          "type": "uint32"
        }
      ],
      "stateMutability": "view",
      "type": "function"
    },
    {
      "inputs": [
        {
          "internalType": "address",
          "name": "_address",
          "type": "address"
        }
      ],
      "name": "setKittyContractAddress",
      "outputs": [],
      "stateMutability": "nonpayable",
      "type": "function"
    },
    {
      "inputs": [
        {
          "internalType": "uint256",
          "name": "_zombieId",
          "type": "uint256"
        },
        {
          "internalType": "uint256",
          "name": "_kittyId",
          "type": "uint256"
        }
      ],
      "name": "feedOnKitty",
      "outputs": [],
      "stateMutability": "nonpayable",
      "type": "function"
    }
  ],
  "bytecode": "0x60806040526010600155600154600a6200001a919062000275565b6002556201518060035534801562000030575f80fd5b50335f806101000a81548173ffffffffffffffffffffffffffffffffffffffff021916908373ffffffffffffffffffffffffffffffffffffffff1602179055505f8054906101000a900473ffffffffffffffffffffffffffffffffffffffff1673ffffffffffffffffffffffffffffffffffffffff165f73ffffffffffffffffffffffffffffffffffffffff167f8be0079c531659141344cd1fd0a4f28419497f9722a3daafe3b4186f6b6457e060405160405180910390a3620002c5565b7f4e487b71000000000000000000000000000000000000000000000000000000005f52601160045260245ffd5b5f8160011c9050919050565b5f808291508390505b60018511156200017957808604811115620001515762000150620000ef565b5b6001851615620001615780820291505b808102905062000171856200011c565b945062000131565b94509492505050565b5f8262000193576001905062000265565b81620001a2575f905062000265565b8160018114620001bb5760028114620001c657620001fc565b600191505062000265565b60ff841115620001db57620001da620000ef565b5b8360020a915084821115620001f557620001f4620000ef565b5b5062000265565b5060208310610133831016604e8410600b8410161715620002365782820a90508381111562000230576200022f620000ef565b5b62000265565b62000245848484600162000128565b925090508184048111156200025f576200025e620000ef565b5b81810290505b9392505050565b5f819050919050565b5f62000281826200026c565b91506200028e836200026c565b9250620002bd7fffffffffffffffffffffffffffffffffffffffffffffffffffffffffffffffff848462000182565b905092915050565b611a1280620002d35f395ff3fe608060405234801561000f575f80fd5b50600436106100b2575f3560e01c8063692c66271161006f578063692c66271461019f5780637bff0a01146101bd5780638da5cb5b146101d9578063b319c6b7146101f7578063daba071114610215578063f2fde38b14610233576100b2565b806301afd7e1146100b657806317a7f4cc146100e65780632052465e14610102578063528b7b8f146101355780635f4623f1146101655780635f9da25c14610181575b5f80fd5b6100d060048036038101906100cb9190610d04565b61024f565b6040516100dd9190610d47565b60405180910390f35b61010060048036038101906100fb9190610d8a565b610264565b005b61011c60048036038101906101179190610dc8565b61034f565b60405161012c9493929190610e9b565b60405180910390f35b61014f600480360381019061014a9190610dc8565b61042f565b60405161015c9190610ef4565b60405180910390f35b61017f600480360381019061017a9190610d04565b61045f565b005b61018961052f565b6040516101969190610f68565b60405180910390f35b6101a7610554565b6040516101b49190610d47565b60405180910390f35b6101d760048036038101906101d291906110ad565b61055a565b005b6101e161060d565b6040516101ee9190610ef4565b60405180910390f35b6101ff610630565b60405161020c9190610d47565b60405180910390f35b61021d610636565b60405161022a9190610d47565b60405180910390f35b61024d60048036038101906102489190610d04565b61063c565b005b6006602052805f5260405f205f915090505481565b5f60075f9054906101000a900473ffffffffffffffffffffffffffffffffffffffff1673ffffffffffffffffffffffffffffffffffffffff1663e98b7f4d836040518263ffffffff1660e01b81526004016102bf9190610d47565b61014060405180830381865afa1580156102db573d5f803e3d5ffd5b505050506040513d601f19601f820116820180604052508101906102ff919061113d565b995050505050505050505061034a83826040518060400160405280600581526020017f6b697474790000000000000000000000000000000000000000000000000000008152506107f2565b505050565b6004818154811061035e575f80fd5b905f5260205f2090600302015f91509050805f01805461037d90611243565b80601f01602080910402602001604051908101604052809291908181526020018280546103a990611243565b80156103f45780601f106103cb576101008083540402835291602001916103f4565b820191905f5260205f20905b8154815290600101906020018083116103d757829003601f168201915b505050505090806001015490806002015f9054906101000a900463ffffffff16908060020160049054906101000a900463ffffffff16905084565b6005602052805f5260405f205f915054906101000a900473ffffffffffffffffffffffffffffffffffffffff1681565b5f8054906101000a900473ffffffffffffffffffffffffffffffffffffffff1673ffffffffffffffffffffffffffffffffffffffff163373ffffffffffffffffffffffffffffffffffffffff16146104ec576040517f08c379a00000000000000000000000000000000000000000000000000000000081526004016104e3906112bd565b60405180910390fd5b8060075f6101000a81548173ffffffffffffffffffffffffffffffffffffffff021916908373ffffffffffffffffffffffffffffffffffffffff16021790555050565b60075f9054906101000a900473ffffffffffffffffffffffffffffffffffffffff1681565b60015481565b5f60065f3373ffffffffffffffffffffffffffffffffffffffff1673ffffffffffffffffffffffffffffffffffffffff1681526020019081526020015f2054146105d9576040517f08c379a00000000000000000000000000000000000000000000000000000000081526004016105d090611325565b60405180910390fd5b5f6105e3826109f1565b90506064816105f29190611370565b816105fd91906113cd565b90506106098282610a34565b5050565b5f8054906101000a900473ffffffffffffffffffffffffffffffffffffffff1681565b60035481565b60025481565b5f8054906101000a900473ffffffffffffffffffffffffffffffffffffffff1673ffffffffffffffffffffffffffffffffffffffff163373ffffffffffffffffffffffffffffffffffffffff16146106c9576040517f08c379a00000000000000000000000000000000000000000000000000000000081526004016106c0906112bd565b60405180910390fd5b5f73ffffffffffffffffffffffffffffffffffffffff168173ffffffffffffffffffffffffffffffffffffffff1603610737576040517f08c379a000000000000000000000000000000000000000000000000000000000815260040161072e9061144a565b60405180910390fd5b8073ffffffffffffffffffffffffffffffffffffffff165f8054906101000a900473ffffffffffffffffffffffffffffffffffffffff1673ffffffffffffffffffffffffffffffffffffffff167f8be0079c531659141344cd1fd0a4f28419497f9722a3daafe3b4186f6b6457e060405160405180910390a3805f806101000a81548173ffffffffffffffffffffffffffffffffffffffff021916908373ffffffffffffffffffffffffffffffffffffffff16021790555050565b60055f8481526020019081526020015f205f9054906101000a900473ffffffffffffffffffffffffffffffffffffffff1673ffffffffffffffffffffffffffffffffffffffff163373ffffffffffffffffffffffffffffffffffffffff1614610890576040517f08c379a0000000000000000000000000000000000000000000000000000000008152600401610887906114b2565b60405180910390fd5b5f600484815481106108a5576108a46114d0565b5b905f5260205f20906003020190506108bc81610c40565b6108fb576040517f08c379a00000000000000000000000000000000000000000000000000000000081526004016108f290611547565b60405180910390fd5b600254836109099190611370565b92505f600284836001015461091e9190611565565b6109289190611598565b90506040516020016109399061161c565b60405160208183030381529060405280519060200120836040516020016109609190611660565b60405160208183030381529060405280519060200120036109a257606360648261098a9190611370565b8261099591906113cd565b61099f9190611565565b90505b6109e16040518060400160405280600681526020017f4e6f4e616d65000000000000000000000000000000000000000000000000000081525082610a34565b6109ea82610c66565b5050505050565b5f8082604051602001610a049190611660565b604051602081830303815290604052805190602001205f1c905060025481610a2c9190611370565b915050919050565b5f60035442610a439190611565565b905063ffffffff8016811115610a8e576040517f08c379a0000000000000000000000000000000000000000000000000000000008152600401610a85906116e6565b60405180910390fd5b5f8190505f600480549050905060046040518060800160405280878152602001868152602001600163ffffffff1681526020018463ffffffff16815250908060018154018082558091505060019003905f5260205f2090600302015f909190919091505f820151815f019081610b049190611898565b50602082015181600101556040820151816002015f6101000a81548163ffffffff021916908363ffffffff16021790555060608201518160020160046101000a81548163ffffffff021916908363ffffffff16021790555050503360055f8381526020019081526020015f205f6101000a81548173ffffffffffffffffffffffffffffffffffffffff021916908373ffffffffffffffffffffffffffffffffffffffff16021790555060065f3373ffffffffffffffffffffffffffffffffffffffff1673ffffffffffffffffffffffffffffffffffffffff1681526020019081526020015f205f815480929190610bfa90611967565b9190505550807f88f026aacbbecc90c18411df4b1185fd8d9be2470f1962f192bf84a27d0704b78686604051610c319291906119ae565b60405180910390a25050505050565b5f428260020160049054906101000a900463ffffffff1663ffffffff1611159050919050565b60035442610c749190611565565b8160020160046101000a81548163ffffffff021916908363ffffffff16021790555050565b5f604051905090565b5f80fd5b5f80fd5b5f73ffffffffffffffffffffffffffffffffffffffff82169050919050565b5f610cd382610caa565b9050919050565b610ce381610cc9565b8114610ced575f80fd5b50565b5f81359050610cfe81610cda565b92915050565b5f60208284031215610d1957610d18610ca2565b5b5f610d2684828501610cf0565b91505092915050565b5f819050919050565b610d4181610d2f565b82525050565b5f602082019050610d5a5f830184610d38565b92915050565b610d6981610d2f565b8114610d73575f80fd5b50565b5f81359050610d8481610d60565b92915050565b5f8060408385031215610da057610d9f610ca2565b5b5f610dad85828601610d76565b9250506020610dbe85828601610d76565b9150509250929050565b5f60208284031215610ddd57610ddc610ca2565b5b5f610dea84828501610d76565b91505092915050565b5f81519050919050565b5f82825260208201905092915050565b5f5b83811015610e2a578082015181840152602081019050610e0f565b5f8484015250505050565b5f601f19601f8301169050919050565b5f610e4f82610df3565b610e598185610dfd565b9350610e69818560208601610e0d565b610e7281610e35565b840191505092915050565b5f63ffffffff82169050919050565b610e9581610e7d565b82525050565b5f6080820190508181035f830152610eb38187610e45565b9050610ec26020830186610d38565b610ecf6040830185610e8c565b610edc6060830184610e8c565b95945050505050565b610eee81610cc9565b82525050565b5f602082019050610f075f830184610ee5565b92915050565b5f819050919050565b5f610f30610f2b610f2684610caa565b610f0d565b610caa565b9050919050565b5f610f4182610f16565b9050919050565b5f610f5282610f37565b9050919050565b610f6281610f48565b82525050565b5f602082019050610f7b5f830184610f59565b92915050565b5f80fd5b5f80fd5b7f4e487b71000000000000000000000000000000000000000000000000000000005f52604160045260245ffd5b610fbf82610e35565b810181811067ffffffffffffffff82111715610fde57610fdd610f89565b5b80604052505050565b5f610ff0610c99565b9050610ffc8282610fb6565b919050565b5f67ffffffffffffffff82111561101b5761101a610f89565b5b61102482610e35565b9050602081019050919050565b828183375f83830152505050565b5f61105161104c84611001565b610fe7565b90508281526020810184848401111561106d5761106c610f85565b5b611078848285611031565b509392505050565b5f82601f83011261109457611093610f81565b5b81356110a484826020860161103f565b91505092915050565b5f602082840312156110c2576110c1610ca2565b5b5f82013567ffffffffffffffff8111156110df576110de610ca6565b5b6110eb84828501611080565b91505092915050565b5f8115159050919050565b611108816110f4565b8114611112575f80fd5b50565b5f81519050611123816110ff565b92915050565b5f8151905061113781610d60565b92915050565b5f805f805f805f805f806101408b8d03121561115c5761115b610ca2565b5b5f6111698d828e01611115565b9a5050602061117a8d828e01611115565b995050604061118b8d828e01611129565b985050606061119c8d828e01611129565b97505060806111ad8d828e01611129565b96505060a06111be8d828e01611129565b95505060c06111cf8d828e01611129565b94505060e06111e08d828e01611129565b9350506101006111f28d828e01611129565b9250506101206112048d828e01611129565b9150509295989b9194979a5092959850565b7f4e487b71000000000000000000000000000000000000000000000000000000005f52602260045260245ffd5b5f600282049050600182168061125a57607f821691505b60208210810361126d5761126c611216565b5b50919050565b7f43616c6c6572206973206e6f7420746865206f776e65720000000000000000005f82015250565b5f6112a7601783610dfd565b91506112b282611273565b602082019050919050565b5f6020820190508181035f8301526112d48161129b565b9050919050565b7f596f7520616c7265616479206f776e2061207a6f6d6269652e000000000000005f82015250565b5f61130f601983610dfd565b915061131a826112db565b602082019050919050565b5f6020820190508181035f83015261133c81611303565b9050919050565b7f4e487b71000000000000000000000000000000000000000000000000000000005f52601260045260245ffd5b5f61137a82610d2f565b915061138583610d2f565b92508261139557611394611343565b5b828206905092915050565b7f4e487b71000000000000000000000000000000000000000000000000000000005f52601160045260245ffd5b5f6113d782610d2f565b91506113e283610d2f565b92508282039050818111156113fa576113f96113a0565b5b92915050565b7f4e6577206f776e657220697320746865207a65726f20616464726573730000005f82015250565b5f611434601d83610dfd565b915061143f82611400565b602082019050919050565b5f6020820190508181035f83015261146181611428565b9050919050565b7f4e6f7420746865206f776e6572206f6620746865207a6f6d62696500000000005f82015250565b5f61149c601b83610dfd565b91506114a782611468565b602082019050919050565b5f6020820190508181035f8301526114c981611490565b9050919050565b7f4e487b71000000000000000000000000000000000000000000000000000000005f52603260045260245ffd5b7f5a6f6d626965206973206e6f74207265616479000000000000000000000000005f82015250565b5f611531601383610dfd565b915061153c826114fd565b602082019050919050565b5f6020820190508181035f83015261155e81611525565b9050919050565b5f61156f82610d2f565b915061157a83610d2f565b9250828201905080821115611592576115916113a0565b5b92915050565b5f6115a282610d2f565b91506115ad83610d2f565b9250826115bd576115bc611343565b5b828204905092915050565b5f81905092915050565b7f6b697474790000000000000000000000000000000000000000000000000000005f82015250565b5f6116066005836115c8565b9150611611826115d2565b600582019050919050565b5f611626826115fa565b9150819050919050565b5f61163a82610df3565b61164481856115c8565b9350611654818560208601610e0d565b80840191505092915050565b5f61166b8284611630565b915081905092915050565b7f436f6f6c646f776e2074696d6520657863656564732075696e7433322072616e5f8201527f6765000000000000000000000000000000000000000000000000000000000000602082015250565b5f6116d0602283610dfd565b91506116db82611676565b604082019050919050565b5f6020820190508181035f8301526116fd816116c4565b9050919050565b5f819050815f5260205f209050919050565b5f6020601f8301049050919050565b5f82821b905092915050565b5f600883026117607fffffffffffffffffffffffffffffffffffffffffffffffffffffffffffffffff82611725565b61176a8683611725565b95508019841693508086168417925050509392505050565b5f61179c61179761179284610d2f565b610f0d565b610d2f565b9050919050565b5f819050919050565b6117b583611782565b6117c96117c1826117a3565b848454611731565b825550505050565b5f90565b6117dd6117d1565b6117e88184846117ac565b505050565b5b8181101561180b576118005f826117d5565b6001810190506117ee565b5050565b601f8211156118505761182181611704565b61182a84611716565b81016020851015611839578190505b61184d61184585611716565b8301826117ed565b50505b505050565b5f82821c905092915050565b5f6118705f1984600802611855565b1980831691505092915050565b5f6118888383611861565b9150826002028217905092915050565b6118a182610df3565b67ffffffffffffffff8111156118ba576118b9610f89565b5b6118c48254611243565b6118cf82828561180f565b5f60209050601f831160018114611900575f84156118ee578287015190505b6118f8858261187d565b86555061195f565b601f19841661190e86611704565b5f5b8281101561193557848901518255600182019150602085019450602081019050611910565b86831015611952578489015161194e601f891682611861565b8355505b6001600288020188555050505b505050505050565b5f61197182610d2f565b91507fffffffffffffffffffffffffffffffffffffffffffffffffffffffffffffffff82036119a3576119a26113a0565b5b600182019050919050565b5f6040820190508181035f8301526119c68185610e45565b90506119d56020830184610d38565b939250505056fea2646970667358221220bb688a3e4ef69764d6240faabd9fde4e731587f70081a8196e2ee2b246232aa364736f6c63430008150033",
  "immutableReferences": {},
  "source": "// SPDX-License-Identifier: GPL-MIT\r\npragma solidity ^0.8.19;\r\n\r\nimport \"./zombiefactory.sol\";\r\n\r\ninterface KittyInterface {\r\n  function getKitty(uint256 _id) external view returns (\r\n    bool isGestating,\r\n    bool isReady,\r\n    uint256 cooldownIndex,\r\n    uint256 nextActionAt,\r\n    uint256 siringWithId,\r\n    uint256 birthTime,\r\n    uint256 matronId,\r\n    uint256 sireId,\r\n    uint256 generation,\r\n    uint256 genes\r\n  );\r\n}\r\n\r\ncontract ZombieFeeding is ZombieFactory {\r\n\r\n  KittyInterface public kittyContract;\r\n\r\n  function setKittyContractAddress(address _address) external onlyOwner {\r\n    kittyContract = KittyInterface(_address);\r\n  }\r\n\r\n  function _triggerCooldown(Zombie storage _zombie) internal {\r\n    _zombie.readyTime = uint32(block.timestamp + cooldownTime);\r\n  }\r\n\r\n  function _isReady(Zombie storage _zombie) internal view returns (bool) {\r\n    return (_zombie.readyTime <= block.timestamp);\r\n  }\r\n\r\n  function feedAndMultiply(uint _zombieId, uint _targetDna, string memory _species) internal {\r\n    require(msg.sender == zombieToOwner[_zombieId], \"Not the owner of the zombie\");\r\n    Zombie storage myZombie = zombies[_zombieId];\r\n    require(_isReady(myZombie), \"Zombie is not ready\");\r\n    _targetDna = _targetDna % dnaModulus;\r\n    uint newDna = (myZombie.dna + _targetDna) / 2;\r\n    if (keccak256(abi.encodePacked(_species)) == keccak256(abi.encodePacked(\"kitty\"))) {\r\n      newDna = newDna - (newDna % 100) + 99;\r\n    }\r\n    _createZombie(\"NoName\", newDna);\r\n    _triggerCooldown(myZombie);\r\n  }\r\n\r\n  function feedOnKitty(uint _zombieId, uint _kittyId) public {\r\n    (,,,,,,,,, uint kittyDna) = kittyContract.getKitty(_kittyId);\r\n    feedAndMultiply(_zombieId, kittyDna, \"kitty\");\r\n  }\r\n}",
  "sourcePath": "C:\\Users\\JTH\\Desktop\\project\\practice-zombieSOL\\contracts\\zombiefeeding.sol",
  "compiler": {
    "name": "solc",
    "version": "0.8.21+commit.d9974bed.Emscripten.clang"
  },
  "schemaVersion": "3.4.16",
  "updatedAt": "2024-09-02T12:49:21.240Z",
  "devdoc": {
    "kind": "dev",
    "methods": {},
    "version": 1
  },
  "userdoc": {
    "kind": "user",
    "methods": {},
    "version": 1
  }
}