{
  "contractName": "ZombieFactory",
  "abi": [
    {
      "anonymous": false,
      "inputs": [
        {
          "indexed": true,
          "internalType": "uint256",
          "name": "zombieId",
          "type": "uint256"
        },
        {
          "indexed": false,
          "internalType": "string",
          "name": "name",
          "type": "string"
        },
        {
          "indexed": false,
          "internalType": "uint256",
          "name": "dna",
          "type": "uint256"
        }
      ],
      "name": "NewZombie",
      "type": "event"
    },
    {
      "anonymous": false,
      "inputs": [
        {
          "indexed": true,
          "internalType": "address",
          "name": "previousOwner",
          "type": "address"
        },
        {
          "indexed": true,
          "internalType": "address",
          "name": "newOwner",
          "type": "address"
        }
      ],
      "name": "OwnershipTransferred",
      "type": "event"
    },
    {
      "inputs": [],
      "name": "cooldownTime",
      "outputs": [
        {
          "internalType": "uint256",
          "name": "",
          "type": "uint256"
        }
      ],
      "stateMutability": "view",
      "type": "function"
    },
    {
      "inputs": [],
      "name": "dnaDigits",
      "outputs": [
        {
          "internalType": "uint256",
          "name": "",
          "type": "uint256"
        }
      ],
      "stateMutability": "view",
      "type": "function"
    },
    {
      "inputs": [],
      "name": "dnaModulus",
      "outputs": [
        {
          "internalType": "uint256",
          "name": "",
          "type": "uint256"
        }
      ],
      "stateMutability": "view",
      "type": "function"
    },
    {
      "inputs": [],
      "name": "owner",
      "outputs": [
        {
          "internalType": "address",
          "name": "",
          "type": "address"
        }
      ],
      "stateMutability": "view",
      "type": "function"
    },
    {
      "inputs": [
        {
          "internalType": "address",
          "name": "",
          "type": "address"
        }
      ],
      "name": "ownerZombieCount",
      "outputs": [
        {
          "internalType": "uint256",
          "name": "",
          "type": "uint256"
        }
      ],
      "stateMutability": "view",
      "type": "function"
    },
    {
      "inputs": [
        {
          "internalType": "address",
          "name": "newOwner",
          "type": "address"
        }
      ],
      "name": "transferOwnership",
      "outputs": [],
      "stateMutability": "nonpayable",
      "type": "function"
    },
    {
      "inputs": [
        {
          "internalType": "uint256",
          "name": "",
          "type": "uint256"
        }
      ],
      "name": "zombieToOwner",
      "outputs": [
        {
          "internalType": "address",
          "name": "",
          "type": "address"
        }
      ],
      "stateMutability": "view",
      "type": "function"
    },
    {
      "inputs": [
        {
          "internalType": "uint256",
          "name": "",
          "type": "uint256"
        }
      ],
      "name": "zombies",
      "outputs": [
        {
          "internalType": "string",
          "name": "name",
          "type": "string"
        },
        {
          "internalType": "uint256",
          "name": "dna",
          "type": "uint256"
        },
        {
          "internalType": "uint32",
          "name": "level",
          "type": "uint32"
        },
        {
          "internalType": "uint32",
          "name": "readyTime",
          "type": "uint32"
        }
      ],
      "stateMutability": "view",
      "type": "function"
    },
    {
      "inputs": [
        {
          "internalType": "string",
          "name": "_name",
          "type": "string"
        }
      ],
      "name": "createRandomZombie",
      "outputs": [],
      "stateMutability": "nonpayable",
      "type": "function"
    }
  ],
  "bytecode": "0x60806040526010600155600154600a6200001a919062000275565b6002556201518060035534801562000030575f80fd5b50335f806101000a81548173ffffffffffffffffffffffffffffffffffffffff021916908373ffffffffffffffffffffffffffffffffffffffff1602179055505f8054906101000a900473ffffffffffffffffffffffffffffffffffffffff1673ffffffffffffffffffffffffffffffffffffffff165f73ffffffffffffffffffffffffffffffffffffffff167f8be0079c531659141344cd1fd0a4f28419497f9722a3daafe3b4186f6b6457e060405160405180910390a3620002c5565b7f4e487b71000000000000000000000000000000000000000000000000000000005f52601160045260245ffd5b5f8160011c9050919050565b5f808291508390505b60018511156200017957808604811115620001515762000150620000ef565b5b6001851615620001615780820291505b808102905062000171856200011c565b945062000131565b94509492505050565b5f8262000193576001905062000265565b81620001a2575f905062000265565b8160018114620001bb5760028114620001c657620001fc565b600191505062000265565b60ff841115620001db57620001da620000ef565b5b8360020a915084821115620001f557620001f4620000ef565b5b5062000265565b5060208310610133831016604e8410600b8410161715620002365782820a90508381111562000230576200022f620000ef565b5b62000265565b62000245848484600162000128565b925090508184048111156200025f576200025e620000ef565b5b81810290505b9392505050565b5f819050919050565b5f62000281826200026c565b91506200028e836200026c565b9250620002bd7fffffffffffffffffffffffffffffffffffffffffffffffffffffffffffffffff848462000182565b905092915050565b61120d80620002d35f395ff3fe608060405234801561000f575f80fd5b5060043610610091575f3560e01c80637bff0a01116100645780637bff0a01146101465780638da5cb5b14610162578063b319c6b714610180578063daba07111461019e578063f2fde38b146101bc57610091565b806301afd7e1146100955780632052465e146100c5578063528b7b8f146100f8578063692c662714610128575b5f80fd5b6100af60048036038101906100aa9190610855565b6101d8565b6040516100bc9190610898565b60405180910390f35b6100df60048036038101906100da91906108db565b6101ed565b6040516100ef94939291906109ae565b60405180910390f35b610112600480360381019061010d91906108db565b6102cd565b60405161011f9190610a07565b60405180910390f35b6101306102fd565b60405161013d9190610898565b60405180910390f35b610160600480360381019061015b9190610b4c565b610303565b005b61016a6103b6565b6040516101779190610a07565b60405180910390f35b6101886103d9565b6040516101959190610898565b60405180910390f35b6101a66103df565b6040516101b39190610898565b60405180910390f35b6101d660048036038101906101d19190610855565b6103e5565b005b6006602052805f5260405f205f915090505481565b600481815481106101fc575f80fd5b905f5260205f2090600302015f91509050805f01805461021b90610bc0565b80601f016020809104026020016040519081016040528092919081815260200182805461024790610bc0565b80156102925780601f1061026957610100808354040283529160200191610292565b820191905f5260205f20905b81548152906001019060200180831161027557829003601f168201915b505050505090806001015490806002015f9054906101000a900463ffffffff16908060020160049054906101000a900463ffffffff16905084565b6005602052805f5260405f205f915054906101000a900473ffffffffffffffffffffffffffffffffffffffff1681565b60015481565b5f60065f3373ffffffffffffffffffffffffffffffffffffffff1673ffffffffffffffffffffffffffffffffffffffff1681526020019081526020015f205414610382576040517f08c379a000000000000000000000000000000000000000000000000000000000815260040161037990610c3a565b60405180910390fd5b5f61038c8261059b565b905060648161039b9190610c85565b816103a69190610ce2565b90506103b282826105de565b5050565b5f8054906101000a900473ffffffffffffffffffffffffffffffffffffffff1681565b60035481565b60025481565b5f8054906101000a900473ffffffffffffffffffffffffffffffffffffffff1673ffffffffffffffffffffffffffffffffffffffff163373ffffffffffffffffffffffffffffffffffffffff1614610472576040517f08c379a000000000000000000000000000000000000000000000000000000000815260040161046990610d5f565b60405180910390fd5b5f73ffffffffffffffffffffffffffffffffffffffff168173ffffffffffffffffffffffffffffffffffffffff16036104e0576040517f08c379a00000000000000000000000000000000000000000000000000000000081526004016104d790610dc7565b60405180910390fd5b8073ffffffffffffffffffffffffffffffffffffffff165f8054906101000a900473ffffffffffffffffffffffffffffffffffffffff1673ffffffffffffffffffffffffffffffffffffffff167f8be0079c531659141344cd1fd0a4f28419497f9722a3daafe3b4186f6b6457e060405160405180910390a3805f806101000a81548173ffffffffffffffffffffffffffffffffffffffff021916908373ffffffffffffffffffffffffffffffffffffffff16021790555050565b5f80826040516020016105ae9190610e1f565b604051602081830303815290604052805190602001205f1c9050600254816105d69190610c85565b915050919050565b5f600354426105ed9190610e35565b905063ffffffff8016811115610638576040517f08c379a000000000000000000000000000000000000000000000000000000000815260040161062f90610ed8565b60405180910390fd5b5f8190505f600480549050905060046040518060800160405280878152602001868152602001600163ffffffff1681526020018463ffffffff16815250908060018154018082558091505060019003905f5260205f2090600302015f909190919091505f820151815f0190816106ae9190611093565b50602082015181600101556040820151816002015f6101000a81548163ffffffff021916908363ffffffff16021790555060608201518160020160046101000a81548163ffffffff021916908363ffffffff16021790555050503360055f8381526020019081526020015f205f6101000a81548173ffffffffffffffffffffffffffffffffffffffff021916908373ffffffffffffffffffffffffffffffffffffffff16021790555060065f3373ffffffffffffffffffffffffffffffffffffffff1673ffffffffffffffffffffffffffffffffffffffff1681526020019081526020015f205f8154809291906107a490611162565b9190505550807f88f026aacbbecc90c18411df4b1185fd8d9be2470f1962f192bf84a27d0704b786866040516107db9291906111a9565b60405180910390a25050505050565b5f604051905090565b5f80fd5b5f80fd5b5f73ffffffffffffffffffffffffffffffffffffffff82169050919050565b5f610824826107fb565b9050919050565b6108348161081a565b811461083e575f80fd5b50565b5f8135905061084f8161082b565b92915050565b5f6020828403121561086a576108696107f3565b5b5f61087784828501610841565b91505092915050565b5f819050919050565b61089281610880565b82525050565b5f6020820190506108ab5f830184610889565b92915050565b6108ba81610880565b81146108c4575f80fd5b50565b5f813590506108d5816108b1565b92915050565b5f602082840312156108f0576108ef6107f3565b5b5f6108fd848285016108c7565b91505092915050565b5f81519050919050565b5f82825260208201905092915050565b5f5b8381101561093d578082015181840152602081019050610922565b5f8484015250505050565b5f601f19601f8301169050919050565b5f61096282610906565b61096c8185610910565b935061097c818560208601610920565b61098581610948565b840191505092915050565b5f63ffffffff82169050919050565b6109a881610990565b82525050565b5f6080820190508181035f8301526109c68187610958565b90506109d56020830186610889565b6109e2604083018561099f565b6109ef606083018461099f565b95945050505050565b610a018161081a565b82525050565b5f602082019050610a1a5f8301846109f8565b92915050565b5f80fd5b5f80fd5b7f4e487b71000000000000000000000000000000000000000000000000000000005f52604160045260245ffd5b610a5e82610948565b810181811067ffffffffffffffff82111715610a7d57610a7c610a28565b5b80604052505050565b5f610a8f6107ea565b9050610a9b8282610a55565b919050565b5f67ffffffffffffffff821115610aba57610ab9610a28565b5b610ac382610948565b9050602081019050919050565b828183375f83830152505050565b5f610af0610aeb84610aa0565b610a86565b905082815260208101848484011115610b0c57610b0b610a24565b5b610b17848285610ad0565b509392505050565b5f82601f830112610b3357610b32610a20565b5b8135610b43848260208601610ade565b91505092915050565b5f60208284031215610b6157610b606107f3565b5b5f82013567ffffffffffffffff811115610b7e57610b7d6107f7565b5b610b8a84828501610b1f565b91505092915050565b7f4e487b71000000000000000000000000000000000000000000000000000000005f52602260045260245ffd5b5f6002820490506001821680610bd757607f821691505b602082108103610bea57610be9610b93565b5b50919050565b7f596f7520616c7265616479206f776e2061207a6f6d6269652e000000000000005f82015250565b5f610c24601983610910565b9150610c2f82610bf0565b602082019050919050565b5f6020820190508181035f830152610c5181610c18565b9050919050565b7f4e487b71000000000000000000000000000000000000000000000000000000005f52601260045260245ffd5b5f610c8f82610880565b9150610c9a83610880565b925082610caa57610ca9610c58565b5b828206905092915050565b7f4e487b71000000000000000000000000000000000000000000000000000000005f52601160045260245ffd5b5f610cec82610880565b9150610cf783610880565b9250828203905081811115610d0f57610d0e610cb5565b5b92915050565b7f43616c6c6572206973206e6f7420746865206f776e65720000000000000000005f82015250565b5f610d49601783610910565b9150610d5482610d15565b602082019050919050565b5f6020820190508181035f830152610d7681610d3d565b9050919050565b7f4e6577206f776e657220697320746865207a65726f20616464726573730000005f82015250565b5f610db1601d83610910565b9150610dbc82610d7d565b602082019050919050565b5f6020820190508181035f830152610dde81610da5565b9050919050565b5f81905092915050565b5f610df982610906565b610e038185610de5565b9350610e13818560208601610920565b80840191505092915050565b5f610e2a8284610def565b915081905092915050565b5f610e3f82610880565b9150610e4a83610880565b9250828201905080821115610e6257610e61610cb5565b5b92915050565b7f436f6f6c646f776e2074696d6520657863656564732075696e7433322072616e5f8201527f6765000000000000000000000000000000000000000000000000000000000000602082015250565b5f610ec2602283610910565b9150610ecd82610e68565b604082019050919050565b5f6020820190508181035f830152610eef81610eb6565b9050919050565b5f819050815f5260205f209050919050565b5f6020601f8301049050919050565b5f82821b905092915050565b5f60088302610f527fffffffffffffffffffffffffffffffffffffffffffffffffffffffffffffffff82610f17565b610f5c8683610f17565b95508019841693508086168417925050509392505050565b5f819050919050565b5f610f97610f92610f8d84610880565b610f74565b610880565b9050919050565b5f819050919050565b610fb083610f7d565b610fc4610fbc82610f9e565b848454610f23565b825550505050565b5f90565b610fd8610fcc565b610fe3818484610fa7565b505050565b5b8181101561100657610ffb5f82610fd0565b600181019050610fe9565b5050565b601f82111561104b5761101c81610ef6565b61102584610f08565b81016020851015611034578190505b61104861104085610f08565b830182610fe8565b50505b505050565b5f82821c905092915050565b5f61106b5f1984600802611050565b1980831691505092915050565b5f611083838361105c565b9150826002028217905092915050565b61109c82610906565b67ffffffffffffffff8111156110b5576110b4610a28565b5b6110bf8254610bc0565b6110ca82828561100a565b5f60209050601f8311600181146110fb575f84156110e9578287015190505b6110f38582611078565b86555061115a565b601f19841661110986610ef6565b5f5b828110156111305784890151825560018201915060208501945060208101905061110b565b8683101561114d5784890151611149601f89168261105c565b8355505b6001600288020188555050505b505050505050565b5f61116c82610880565b91507fffffffffffffffffffffffffffffffffffffffffffffffffffffffffffffffff820361119e5761119d610cb5565b5b600182019050919050565b5f6040820190508181035f8301526111c18185610958565b90506111d06020830184610889565b939250505056fea26469706673582212209e3014a9de38fd35ac9581a3227d174f0e03ee5933dcd63fd23cbbf594e42c7164736f6c63430008150033",
  "immutableReferences": {},
  "source": "// SPDX-License-Identifier: MIT\r\npragma solidity ^0.8.19;\r\n\r\nimport \"./Ownable.sol\";\r\n\r\ncontract ZombieFactory is Ownable {\r\n\r\n    event NewZombie(uint indexed zombieId, string name, uint dna);\r\n\r\n    uint public dnaDigits = 16;\r\n    uint public dnaModulus = 10 ** dnaDigits;\r\n    uint public cooldownTime = 1 days;\r\n\r\n    struct Zombie {\r\n        string name;\r\n        uint dna;\r\n        uint32 level;\r\n        uint32 readyTime;\r\n    }\r\n\r\n    Zombie[] public zombies;\r\n\r\n    mapping (uint => address) public zombieToOwner;\r\n    mapping (address => uint) public ownerZombieCount;\r\n\r\n    function _createZombie(string memory _name, uint _dna) internal {\r\n        uint futureTime = block.timestamp + cooldownTime;\r\n        require(futureTime <= type(uint32).max, \"Cooldown time exceeds uint32 range\");\r\n        uint32 readyTime = uint32(futureTime);\r\n        \r\n        uint id = zombies.length; // Using length to get the index for the new zombie\r\n        zombies.push(Zombie(_name, _dna, 1, readyTime));\r\n        zombieToOwner[id] = msg.sender;\r\n        ownerZombieCount[msg.sender]++;\r\n        emit NewZombie(id, _name, _dna);\r\n    }\r\n\r\n    function _generateRandomDna(string memory _str) private view returns (uint) {\r\n        uint rand = uint(keccak256(abi.encodePacked(_str)));\r\n        return rand % dnaModulus;\r\n    }\r\n\r\n    function createRandomZombie(string memory _name) public {\r\n        require(ownerZombieCount[msg.sender] == 0, \"You already own a zombie.\");\r\n        uint randDna = _generateRandomDna(_name);\r\n        randDna = randDna - randDna % 100; // Ensure DNA ends in 00\r\n        _createZombie(_name, randDna);\r\n    }\r\n\r\n}",
  "sourcePath": "C:\\Users\\JTH\\Desktop\\project\\practice-zombieSOL\\contracts\\zombiefactory.sol",
  "compiler": {
    "name": "solc",
    "version": "0.8.21+commit.d9974bed.Emscripten.clang"
  },
  "schemaVersion": "3.4.16",
  "updatedAt": "2024-09-02T12:49:21.231Z",
  "devdoc": {
    "kind": "dev",
    "methods": {},
    "version": 1
  },
  "userdoc": {
    "kind": "user",
    "methods": {},
    "version": 1
  }
}